:100000000C9462000C948A000C948A000C948A0070
:100010000C948A000C948A000C948A000C948A0038
:100020000C948A000C948A000C948A000C948A0028
:100030000C948A000C948A000C948A000C948A0018
:100040000C949F020C948A000C946D020C9447024D
:100050000C948A000C948A000C948A000C948A00F8
:100060000C948A000C948A000000000025002800EF
:100070002B0000000000240027002A0000000000E0
:1000800023002600290004040404040404040202DA
:100090000202020203030303030301020408102007
:1000A0004080010204081020010204081020000012
:1000B0000008000201000003040700000000000027
:1000C0000000FD0311241FBECFEFD8E0DEBFCDBF7F
:1000D00011E0A0E0B1E0E4E6F8E002C005900D9286
:1000E000A632B107D9F721E0A6E2B1E001C01D9226
:1000F000AC3CB207E1F710E0C2E6D0E004C02197C3
:10010000FE010E942A04C136D107C9F70E94E90204
:100110000C9430040C940000AF92BF92CF92DF9207
:10012000EF92FF920F931F93CF93DF936C017B01AC
:100130008B01040F151FEB015E01AE18BF08C0173D
:10014000D10759F06991D601ED91FC910190F081B0
:10015000E02DC6010995892B79F7C501DF91CF9173
:100160001F910F91FF90EF90DF90CF90BF90AF90D5
:100170000895FC01538D448D252F30E0842F90E0AD
:10018000821B930B541710F0CF9608950197089592
:10019000FC01918D828D981761F0A28DAE0FBF2F5B
:1001A000B11D5D968C91928D9F5F9F73928F90E0B1
:1001B00008958FEF9FEF0895FC01918D828D981720
:1001C00031F0828DE80FF11D858D90E008958FEF5D
:1001D0009FEF0895FC01918D228D892F90E0805C26
:1001E0009F4F821B91098F73992708958FE291E0A9
:1001F0000E94EA0021E0892B09F420E0822F089573
:1002000080E090E0892B29F00E94F60081110C9487
:1002100000000895FC01A48DA80FB92FB11DA35AA9
:10022000BF4F2C91848D90E001968F739927848F16
:10023000A689B7892C93A089B1898C918370806439
:100240008C93938D848D981306C00288F389E02DDA
:1002500080818F7D80830895EF92FF920F931F938B
:10026000CF93DF93EC0181E0888F9B8D8C8D981369
:100270001AC0E889F989808185FF15C09FB7F89475
:10028000EE89FF896083E889F989808183708064C1
:1002900080839FBF81E090E0DF91CF911F910F910C
:1002A000FF90EF900895F62E0B8D10E00F5F1F4F1B
:1002B0000F731127E02E8C8D8E110CC00FB607FC2A
:1002C000FACFE889F989808185FFF5CFCE010E94B8
:1002D0000A01F1CFEB8DEC0FFD2FF11DE35AFF4F1B
:1002E000F0829FB7F8940B8FEA89FB898081806246
:1002F000CFCFCF93DF93EC01888D8823B9F0AA8903
:10030000BB89E889F9898C9185FD03C0808186FDD0
:100310000DC00FB607FCF7CF8C9185FFF2CF80811F
:1003200085FFEDCFCE010E940A01E9CFDF91CF9189
:100330000895833081F028F4813099F08230A9F05B
:1003400008958730A9F08830C9F08430B1F48091E5
:1003500080008F7D03C0809180008F778093800024
:10036000089584B58F7784BD089584B58F7DFBCFC4
:100370008091B0008F778093B00008958091B00095
:100380008F7DF9CF1F93CF93DF93282F30E0F901B2
:10039000E255FF4F8491F901E656FF4FD491F901E0
:1003A000EA57FF4FC491CC23A9F0162F81110E9468
:1003B0009901EC2FF0E0EE0FFF1FE859FF4FA591D8
:1003C000B4918FB7F894EC91111108C0D095DE2349
:1003D000DC938FBFDF91CF911F910895DE2BF8CF73
:1003E0003FB7F89480912B0190912C01A0912D01A1
:1003F000B0912E0126B5A89B05C02F3F19F001969C
:10040000A11DB11D3FBFBA2FA92F982F8827BC016E
:10041000CD01620F711D811D911D42E0660F771F96
:10042000881F991F4A95D1F708958F929F92AF9296
:10043000BF92CF92DF92EF92FF924B015C010E943C
:10044000F0016B017C010E94F0016C197D098E099D
:100450009F09683E734081059105A8F321E0821A47
:100460009108A108B10888EEC80E83E0D81EE11CEF
:10047000F11C81149104A104B10429F7FF90EF90BD
:10048000DF90CF90BF90AF909F908F9008951F9274
:100490000F920FB60F9211242F933F934F935F93B8
:1004A0006F937F938F939F93AF93BF93EF93FF933C
:1004B0008FE291E00E940A01FF91EF91BF91AF910D
:1004C0009F918F917F916F915F914F913F912F916C
:1004D0000F900FBE0F901F9018951F920F920FB69E
:1004E0000F9211242F938F939F93EF93FF93E0919B
:1004F0003F01F09140018081E0914501F09146017A
:1005000082FD1BC09081809148018F5F8F73209185
:100510004901821741F0E0914801F0E0E15DFE4FB2
:10052000958F80934801FF91EF919F918F912F912B
:100530000F900FBE0F901F9018958081F4CF1F92DF
:100540000F920FB60F9211242F933F938F939F9387
:10055000AF93BF938091270190912801A091290129
:10056000B0912A013091260123E0230F2D3758F551
:100570000196A11DB11D2093260180932701909320
:100580002801A0932901B0932A0180912B01909119
:100590002C01A0912D01B0912E010196A11DB11D3C
:1005A00080932B0190932C01A0932D01B0932E01E9
:1005B000BF91AF919F918F913F912F910F900FBE5F
:1005C0000F901F90189526E8230F0296A11DB11DCC
:1005D000D2CF789484B5826084BD84B5816084BDB7
:1005E00085B5826085BD85B5816085BD80916E00D1
:1005F000816080936E001092810080918100826002
:10060000809381008091810081608093810080913E
:1006100080008160809380008091B100846080932D
:10062000B1008091B00081608093B00080917A0029
:10063000846080937A0080917A00826080937A004F
:1006400080917A00816080937A0080917A0080683E
:1006500080937A001092C100C5EAD0E0FE01249197
:1006600001E910E0F80184918823C9F090E0880F37
:10067000991FFC01EE58FF4FA591B491FC01E85978
:10068000FF4F459154913FB7F8949C91822F8095EC
:1006900098239C93FA019081892380833FBFE2EAEB
:1006A000F0E02491EEE8F0E08491882399F090E066
:1006B000880F991FFC01EE58FF4FA591B491FC01E2
:1006C000E859FF4F859194918FB7F894EC91E22B04
:1006D000EC938FBFE0913F01F091400182E0808375
:1006E000E0913B01F0913C011082E0913D01F091DD
:1006F0003E018FEC808310924701E0914301F0911D
:10070000440186E08083E0914101F09142018081C3
:1007100080618083E0914101F09142018081886095
:100720008083E0914101F091420180818068808363
:10073000E0914101F091420180818F7D808399EBAE
:10074000E92E90E0F92E20E0C22E20E0D22EF70113
:100750008491FE01A490F801B490B1103EC04FE026
:1007600050E062E171E08FE291E00E948C0042E093
:1007700050E062E271E08FE291E00E948C0061E063
:1007800088E00E94C20160E177E280E090E00E9490
:10079000150260E088E00E94C20168EE73E080E02C
:1007A00090E00E94150261E089E00E94C20160E1D0
:1007B00077E280E090E00E94150260E089E00E940C
:1007C000C201C114D10409F4C2CF0E94F6008823EB
:1007D00009F4BDCF0E940000BACF81110E94990197
:1007E000EB2DF0E0EE0FFF1FE458FF4FA591B49101
:1007F0008C91A82209F4B3CFE4CFEFE2F1E01382A9
:10080000128288EE93E0A0E0B0E084839583A68313
:10081000B78384E091E09183808385EC90E09587B5
:10082000848784EC90E09787868780EC90E0918BBA
:10083000808B81EC90E0938B828B82EC90E0958BA7
:10084000848B86EC90E0978B868B118E128E138EA4
:10085000148E0895EE0FFF1F0590F491E02D09947A
:04086000F894FFCF3A
:10086400000000002C018C00B9007901EA00C800E6
:10087400DC00546865207573657220776176656461
:0608840021000D0A000036
:00000001FF
